:020000040000FA
:100000000040002069C40100A5C40100A7C401008C
:1000100000000000000000000000000000000000E0
:10002000000000000000000000000000A9C4010062
:100030000000000000000000ABC40100ADC40100DE
:10004000AFC4010049830000ADCB0100AFC4010083
:10005000AFC401000000000069C50100AFC4010089
:100060009D0701001DD1010021CA0100AFC401009C
:10007000AFC40100AFC40100AFC40100AFC40100B0
:10008000AFC40100AFC40100AFC40100AFC40100A0
:10009000AFC40100E9C1010001C10100D90801009C
:1000A000E9080100AFC401000000000000000000EA
:1000B0000000000000000000000000000000000040
:1000C0000448054B10B5834203D0044B002B00D0ED
:1000D000984710BD18010020180100200000000002
:1000E00006480749091A8910CB0F591810B549104D
:1000F00003D0044B002B00D0984710BD18010020FE
:10010000180100200000000010B5074C2378002BD8
:1001100009D1FFF7D5FF054B002B02D0044800E0C2
:1001200000BF0123237010BD20010020000000004B
:10013000F0B00300054B10B5002B03D0044905486F
:1001400000E000BFFFF7CCFF10BDC046000000007C
:1001500024010020F0B00300144B002B00D1124BFF
:100160009D46402292029A1A924600218B460F46E3
:100170001148124A121A24F02DF90D4B002B00D011
:1001800098470C4B002B00D098470020002104001A
:100190000D000B4823F04CFE24F000F8200029004D
:1001A0002BF0E2F923F062FE00000800004000207E
:1001B000000000000000000018010020E42F0020D3
:1001C000D9400200F0B5374F93B03B68364E1193DB
:1001D0000023050005A81400336001910FF0C2F957
:1001E00001222240031E009236D1E2062ED56A6813
:1001F000A968112018F000FD05002E6829000125CE
:10020000019A02A817F006F9A3082B40002231003A
:1002100002A814F04BFA0400032015F06BFA20003A
:1002200025F021FD0120404215F064FA0FF0B8F9E5
:10023000009B2C00002B26D029001C4800F096FBC8
:10024000009C0121194800F091FB1CE0A306D4D5C5
:10025000280028F0D4FDCFE70120404215F04AFAEB
:10026000009B002B03D00121104800F07FFB069873
:100270000FF012FA0E490FF00FF8041E0AD034687E
:10028000009B002BDDD1119A3B6820009A4206D0DA
:1002900024F06AFA069907480FF03AFAF0E713B02B
:1002A000F0BDC046BC2D00203C0100205A250300B3
:1002B000C01203005807030030B5274C89B02368EB
:1002C000202103A88025079327F0D6FB6D00234843
:1002D00025F0A0FC00232248049325F09BFC00F0AD
:1002E0002DFB0128F3D002280FD11E4825F092FCE7
:1002F00003A827F0E3FB012200201B4B1A70079A8A
:1003000023689A4225D024F02FFA032802D1002333
:100310000493E4E7042804D0C1B203A827F00CFC3E
:10032000DDE7124825F076FC049B0193002B08D1F1
:100330000C4825F06FFC03A827F0C0FB802040008C
:10034000DDE71122012103A8FFF73CFF2842C1D0BD
:10035000D5E709B030BDC046BC2D002014260300EF
:100360001CA00300E82B0300D80000202F26030068
:1003700070B5404D86B02B68202101A880260593DA
:1003800027F07AFB76003C4825F044FC3B4825F0FA
:1003900041FC00243A4901A8029428F02DF90128D3
:1003A0000ED1384825F036FC01A827F087FB200045
:1003B000354B1C70059A2B689A4258D024F0D4F91A
:1003C000022803D12F4825F025FCDCE7032801D1C2
:1003D0002C48DCE7042808D12A4825F01BFC01A89A
:1003E00027F06CFB80204000E4E7052827D1274850
:1003F00025F010FC029400F0A1FA6B46C1B2DC1C9F
:1004000021700329E4D004290AD11E4825F002FCFA
:100410000121162201A8FFF7D5FE3042B9D0C9E765
:1004200001A827F089FB23780D2B03D1184825F06C
:10043000F1FBE0E70121200000F098FADBE7029BE6
:10044000002BA6D001A827F065FB08F0E7FA0028EA
:100450000BD00A2101A827F06FFB0E4901A828F054
:10046000CBF80328B4D00428ECD10021D1E706B0A2
:1004700070BDC046BC2D00205C250300AD250300E7
:10048000D3250300E82B0300D8000020D825030063
:10049000082603000F26030010B53E2803D040288D
:1004A0002ED03C2813D1532924D013D84C2921D045
:1004B00007D8482950D049291CD0422907D1012307
:1004C00048E04F2903D3502914D9512947D0254852
:1004D00001F098FC68293FD006D864293FD06629EE
:1004E00008D06229F3D1EAE76C2903D0712936D00C
:1004F0006929ECD101230420002A00D0136010BD2B
:10050000512926D010D849290CD006D84229D6D056
:10051000482918D00129DAD1D1E74C2902D0D6D305
:100520004F29D4D30423E6E76629FBD006D86229F5
:10053000C5D064290DD05329F4D0C8E76929F1D07A
:1005400003D86829C3D1022304E06C29EAD07129B9
:10055000BDD108231800CFE701230220CCE70123F7
:100560000820C9E73226030010B551283DD011D824
:1005700049282ED007D8422803D0482826D0012861
:1005800006D18B5C10E04F284BD017D84C2820D0D8
:10059000002309E0682816D00AD8642836D06628D7
:1005A0002AD06228F4D18B5601205B00184314E056
:1005B0006C2803D0712811D06928E9D192005058D5
:1005C00027F020F809E05200535EEDE75200535A3D
:1005D000EAE79200505827F030F810BDD2008A1890
:1005E0001068516826F0FFFFF7E7D2008A181068FC
:1005F000516827F013F8F0E703239200505898430E
:10060000030002201843084BC018E6E7D2008A18FE
:10061000106851681FF09CFE032302009A431300E8
:10062000EFE792005058D8E700008080F7B5324BD2
:1006300017001B6815686A4604000E000193FFF757
:100640002BFF402C05D1009B043C5A1EAA185D428A
:1006500015405A213E3C62426241B14289412B1809
:100660003B60D2B22B00494225F04FFA04000D0046
:100670004F2E08D0532E0DD124F0A4F900220100F2
:10068000200003F07BFB1C4B019A1B689A4231D07F
:1006900024F06AF8662E06D1032302249843174BF0
:1006A0002043C018EFE7642E06D11FF051FE03234C
:1006B000040002209C43F2E75A2E0FD98022002327
:1006C000D20512196B41002B04D1002A02DB26F05F
:1006D00099FFD8E7290026F086FFD4E7002905D145
:1006E000074B984202D826F0A8FFCCE7290026F055
:1006F00095FFC8E7FEBDC046BC2D002000008080ED
:10070000FFFFFF3FF0B58BB002933E4B14001B6818
:1007100005AA0993029B01901D680F00FFF7BCFE1C
:10072000019B0600402B06D1059B5A1EAA185D426C
:100730003C2315400193029AAB191360019B3E3B89
:1007400003935A425341DBB20293642F12D0662FB7
:100750000BD04F2F2AD13000042E00D904202300C3
:100760002A00029925F0FAF92CE020000FF0F2F8A7
:100770000400F0E720000FF0EDF81FF097FD029B5A
:10078000069007910AAA9B00D318103B2A001B6809
:100790000299042025F0E2F9039B04355A1E934187
:1007A0000AAA9B00D318103B1C68D4E7A30710D1FA
:1007B000154B22689A420CD12B003200029920007E
:1007C00026F0EDFE0F4B099A1B689A4217D023F0D2
:1007D000CBFF20000FF05AF80400042EBBD90021F3
:1007E0005A2F02D9884200DAFF313200280023F064
:1007F000F1FD019B3E2BAED1331FED18ABE70BB0E3
:10080000F0BDC046BC2D002090B90200F7B506002F
:100810000F0014001D0064280DD0662804D04F2856
:1008200013D19400E35105E0940018000F190FF064
:1008300091F83860F7BD18000FF08CF81FF036FD06
:10084000E4003F1938607960F4E703232B400193FB
:1008500011D10E4B2A689A420DD1019A0100402015
:10086000FFF71AFE230043430200FB1801992800FA
:1008700026F095FEDEE728000FF008F822000300BE
:100880003900300025F07DF9D4E7C04690B9020068
:1008900010B50400034B0360403029F0AEFD20008A
:1008A00010BDC04648B9020010B50F4C20002AF018
:1008B0004FFD002808D020002AF01CFD0B4B1B68C0
:1008C000984202D114F024FF10BD3F21084A13883A
:1008D00001330B40074909888B42F5D01188064C3B
:1008E00013806054F0E7C04640010020D42F002060
:1008F000C02D0020C22D0020CA2D0020002210B5DE
:10090000044B05491A80054B05481A802AF025FD3D
:1009100010BDC046C02D0020A9080000C22D002037
:1009200040010020034B1888034B1B88C01A431E4C
:1009300098417047C22D0020C02D0020084A094B65
:1009400010881988884201D130BFF9E71388064919
:10095000C85C3F21138801330B4013807047C046A9
:10096000C22D0020C02D0020CA2D002070B504002B
:100970004518AC4205D0217802482AF0BFFC01346A
:10098000F7E770BD4001002070B504004518AC4287
:100990000DD02378064E0A2B03D10D2130002AF00A
:1009A000ADFC217830002AF0A9FC0134EFE770BDDE
:1009B0004001002070B504000825002C08D021005B
:1009C000082C00D929000348641AFFF7CFFFF4E789
:1009D00070BDC0464826030070B505000400082617
:1009E000002C08D02100082C00D931000448641ADA
:1009F000FFF7BCFFF4E72800FFF7DCFF70BDC0463F
:100A00003F26030010B50100014825F0D1F910BDC3
:100A100008000020142313B5064C00931922182156
:100A200020001AF0B7F8044A044920002AF052FFC7
:100A300013BDC046400100200000002091080000C6
:100A400010B51C0002AB1B78002904D0002B02D18A
:100A50000E4801F0A7FBA24207D1824214D0030046
:100A60000B490C4817F052FD06E0824206D9121AD3
:100A70000949084817F04AFD0EF09AFD844203D256
:100A8000030022000549ECE710BDC04651260300D3
:100A90007A260300FC120300B3260300E5260300B8
:100AA000F0B50024170087B00C9D039004910593C6
:100AB00002940194059B9C4206D1019B039A9342A8
:100AC00040D2254801F06EFB039B9C4213D26B88F9
:100AD0009B05F6D4019B049A01330193A300D058DF
:100AE000FF226B88A6001340012B24D10FF026F8BB
:100AF0000D9B985517E0062329880022C900194349
:100B0000380009F0B5F8002810D16B88DB0506D550
:100B10002A881249124817F0F9FC0EF049FD0D9A87
:100B20006968A300D15001340835C3E7029B4068CF
:100B300001330293D4E7022B01D10EF0A7FE0D9BE7
:100B40009851F0E73B68029ADB08934201D90548C7
:100B5000B8E707B0F0BDC0462B27030014270300F9
:100B6000FC1203004C270300F0B5214E89B0336816
:100B700048680F0007930EF089FE041E02DA002079
:100B800001F040F9BB681B4A00939D186B1E9D4104
:100B90000100EBB203A8019326F07FFF059D220020
:100BA0000021280023F016FC3868C3070ED42B0060
:100BB0002200019926F0F3FC03A90F4803F0A8F8DE
:100BC000079A33689A4211D023F0CEFD43102000DB
:100BD000042C00D904200949009F00228F4200D034
:100BE000221AAA18019924F0B9FFE5E709B0F0BD6F
:100BF000BC2D00205AECFFFF64C10200A6130000C8
:100C0000F0B50C001B4B87B01B68012202A960687D
:100C100005930FF00FF8A3681749029A8B420DD184
:100C2000012703997F424C1E01911419039900205A
:100C30000E00002E05D126F000FD0DE01400012766
:100C4000F4E70E4D013EA8420DD90D481B18581E61
:100C50008341D8B226F094FC064B059A1B689A4251
:100C600006D023F081FD257800022843E419E0E74F
:100C700007B0F0BDBC2D0020A6130000FFFF3F0011
:100C80005AECFFFF70B546007508041C291C281C8F
:100C90001DF0FCFC00280BD11649281C1CF080FD1F
:100CA000002808D01449154829F08DFA0EF080FC70
:100CB000134801F0A7F8002C11DA002E12D0FF2300
:100CC000DB05E3189C22D20593420BD908F01EFEE7
:100CD000211C0500043025F02CFF280070BDE30D19
:100CE000DB05EFE7201C1DF0E7FC01254000054374
:100CF000F3E7C046FFFF7F7F7A270300D011030090
:100D000093270300F0B50F0000242C4E1D0033681C
:100D100087B0110005933800009402232200FFF7EA
:100D20008FFE0120A7422BD0874235D12868384258
:100D300026D103230340A34203D1214A01689142F3
:100D40001ED0204A0240062A06D0002B0DD1026890
:100D50001D4B92699A4208D104A903F03DFE00237D
:100D60001A0004990BF0D0F90AE0032302001A409C
:100D7000022A0BD1FF22D20580189843FFF782FF89
:100D8000059A33689A4216D023F0EEFC0EF07EFDF1
:100D9000012340001843F3E704A9286803F01CFE70
:100DA000049B0700686803930EF070FD23000200A7
:100DB00003993800D6E707B0F0BDC046BC2D00202F
:100DC00090B90200070080FFB14F0000F8B51F0086
:100DD0000B4B15005918013909781CF007FB002648
:100DE0000400B74204D0013003211CF0FFFA0600D2
:100DF000281E01D023F0E6FD0334A4192018F8BD05
:100E00006A270300F0B58DB00A9214AA147815AAC7
:100E1000127806000F000792DA0742D55D10002312
:100E2000002D01DA2D236D420693139A079B129928
:100E30002020FFF7CBFF3B680590834204D225F0CA
:100E400024FC059B30603B6000213768059BFB1844
:100E50005A1E11708D4240D00A3C099208920B94A0
:100E6000129928001CF048FB0B003033092901D9E6
:100E70000B9B5B18089A541E2370079B002B48D0CD
:100E800000282DD0A7422BD2099B1B1B032B05D179
:100E9000079B013C2370A74222D2099405000894C5
:100EA000DEE79A0712D1244A196891420ED1079AB7
:100EB00002940392139A39000192129A00920A9AAC
:100EC00026F034FB040020000DB0F0BD0023326892
:100ED00013700A9A34681360F5E79C1E3023237060
:100EE000139B002B05D0180023F06CFD201A8742BD
:100EF0001FD3069B002B04D0BC4202D9069B013CA9
:100F000023703368059A9B181B1B0A9A013B1360D8
:100F1000D9E7A742E4D20028C0D1E1E7C2540133A7
:100F2000139AD25C002AF9D1069B0400002BE5D16C
:100F3000E7E70023F4E7C04690B9020070B5134C10
:100F40008CB022680B000B921022059200220392B3
:100F5000029201920A320600009205A906AA07AD84
:100F600004A80495FFF74EFF0100300028F02AFF87
:100F70000498A84201D025F0B7FB0B9A23689A4247
:100F800001D023F0F1FB0CB070BDC046BC2D002099
:100F90001300144A10B50400934204D1012220002A
:100FA00000F038FF10BD104A934201D10322F6E74A
:100FB0000020072CF6D10D4A1A40062A0ED09A07B7
:100FC000F0D11A680A4CA24208D00A4CA24205D0BD
:100FD000094CA24202D0094CA242E3D10A000720E8
:100FE0001900DDE728C6020030C60200070080FFB6
:100FF00038FA020064C10200140103007CF602000A
:1010000070B506F0BFFA0F4C0F4B0025A3620F4BD3
:10101000E562636323002563A83303210C481D6048
:10102000A5640CF06DFC0B4E012130000CF068FC47
:101030003000094A094927F076FB26606660E565BD
:1010400070BDC0467C2E0020681003000C01030018
:10105000B42E0020C82E0020760F0000860F00005E
:1010600070B50624134EC3001C43736800220500AC
:101070002100181D08F0FCFD021E18D1F06D00289B
:1010800007D00430210008F0F3FD002801D04068AB
:1010900070BD00222100084808F0EAFD021E06D1BA
:1010A0002A000649064817F031FA0EF081FA506816
:1010B000EEE7C0467C2E0020A8DF0200D328030004
:1010C0001C1103000A4B10B5040018685B689842B5
:1010D0000AD00621E30019430430002208F0C8FDBD
:1010E000002801D0406810BD2000FFF7B9FFFAE7E3
:1010F0007C2E0020074B10B5D86D002801D1064882
:1011000010BD04300022054908F0B2FD0028F6D0D9
:101110004068F5E77C2E002070DE0200DE0E000045
:101120000A00C100062010B5024B0143186827F0E1
:10113000FAFA10BD7C2E0020062110B5034BC0002A
:10114000014318680CF040FC10BDC0467C2E002006
:101150000A00C100062010B5024B0143586827F071
:10116000E2FA10BD7C2E0020062110B5034BC00012
:10117000014358680CF028FC10BDC0467C2E0020AE
:1011800073B5354C060023680D00019306280BD17A
:1011900008000EF0D3FC002812D03048019A2368D2
:1011A0009A4258D023F0E0FACB071BD54B10042805
:1011B00016D81CF007F903154E4E0700002BECD093
:1011C0002748EBE7C0221206934204D18020C005D5
:1011D00026F018FAE2E75B425B0001201843DDE7E6
:1011E000DB43F9E702281AD11E4B0B40062B08D02F
:1011F0008B0714D10A681C4B92699A420FD1486838
:1012000002E0C80825F008FB002806D1694628003E
:1012100002F0EEFD009906F0A3F94300DDE7280097
:101220000EF03AFA4369002B0DD1104BB60028009E
:10123000F45827F06FFB220003000D490D4817F00A
:1012400065F90EF0B5F92900300098470028A5D1BE
:10125000EBE70800A2E776BDBC2D002028C60200FF
:1012600030C60200070080FFB14F000074F3020097
:101270005F290300FC120300F7B50400019116007A
:101280001F000EF009FA0569002D09D1200027F092
:1012900041FB06490200064817F038F90EF088F9BC
:1012A0003B00320001992000A847FEBD66280300DC
:1012B000FC120300F8B50E0015001C00930714D1B2
:1012C00013681E4A934202D16B682360F8BD1C4A22
:1012D000934207D1002802D00EF0DEF906006B68B9
:1012E00048C4F3E7174A934201D12560EEE75A68F4
:1012F000022117008F4314498F4202D013498A42BA
:10130000F3D1002817D1124A93420BD0114A9342CD
:1013100008D0114A934205D0104A934202D0104A95
:10132000934208D10C2025F0B0F90E4B46600360C3
:1013300085602060CAE725606060C7E7C0F20200F0
:1013400084F2020038F30200450200001A02000095
:10135000EC0503002806030064060300A006030052
:10136000DC060300D4B90200F8B500231360536013
:1013700006000D0014000EF08FF9F92307005B0042
:101380009D4205D1836A002B02D00F4B48C4F8BDA3
:10139000FB69002B04D02200290030009847F6E7B3
:1013A000B86B0028F3D00621ED00294304301A0061
:1013B00008F05EFC0028EAD04268230039003000C3
:1013C000FFF778FFE3E7C04638DF020070B516008C
:1013D00004000D00FFF7C8FF3368002B15D10B4E3A
:1013E000A3070BD10A4B22689A4207D12B006268EF
:1013F0000849300017F08AF80EF0DAF8200027F0DC
:1014000089FA2B0002000449F3E770BD4C0E03007B
:1014100038F30200EC280300132903001FB50A4C1F
:1014200001AA23680393FFF7D1FF029901980029CD
:1014300005D1039A23689A4204D023F095F90AF063
:101440001FFEF6E704B010BDBC2D0020F0B5144D12
:1014500085B02B68040003930E0017000EF01CF9F2
:10146000C369002B09D0042202970192310001AA1E
:1014700020009847019B002B0AD0200027F04AFA51
:10148000330002000749084817F040F80EF090F8C2
:10149000039A2B689A4201D023F066F905B0F0BD9B
:1014A000BC2D0020132903004C0E0300F0B51E4E86
:1014B00085B03368040003930D000EF0EDF81B4B6C
:1014C000426A07009A422BD0002D03D1102025F04C
:1014D000DCF805007B6A002B12D1E62101AAFF315E
:1014E0002000FFF741FF019B002B14D1200027F0C3
:1014F00011FA0F4902000F4817F008F80EF058F8DB
:101500002900200098470028E7D0039A33689A42C0
:1015100008D023F029F9290001A814F0CFFAF4E744
:101520002000F2E705B0F0BDBC2D0020418902008B
:1015300082280300FC1203007FB5164E04003368B6
:1015400003930EF0A9F8856A002D07D02000A84764
:10155000039A33689A421AD023F006F9F92101AAB6
:1015600049002000FFF700FF019B002B05D001AAD6
:101570002900280024F086FBEAE7200027F0CAF9BA
:1015800005490200054816F0C1FF0EF011F804B03D
:1015900070BDC046BC2D0020B4280300FC1203001F
:1015A00070B50500204E90B033680F9307F0A2F895
:1015B00028000EF071F8846A002C09D02800A0479A
:1015C00004000F9A336820009A422AD023F0CCF806
:1015D000F92101AA49002800FFF7C6FE019B002B54
:1015E00016D003A80DF0BEFF002807D101AA010004
:1015F00024F048FB04000DF0D3FFE2E7049B0B4905
:1016000018680DF049FE0028DBD104980DF0D0FFDA
:10161000280027F07FF906490200064816F076FFF9
:10162000F4E710B070BDC046BC2D00204812030086
:10163000B4280300FC120300F0B5AA4B91B01B685C
:101640000F9313680793002879D10400131D0393A7
:10165000FF220B00090A1340114001934B0006932F
:10166000069A019B05919B18039A9B00D2580492FD
:10167000039AD3185F68381E09D00020BB0706D133
:10168000994B3A689A4202D1380027F049F8059BF5
:101690001818049B4600002B56D1019B581C831937
:1016A0009800009324F0F1FF26000500002C01D0E3
:1016B00001260460019BB0009A002818039922F0CB
:1016C000F7FD019B9B190293029B9800059B28182C
:1016D000DA00019B9900039B591822F0E9FD029A58
:1016E000069B944663440193002F12D003243C4090
:1016F00000D0AFE07C4B3A689A4200D0AAE03800B4
:1017000027F01BF803230600009373689C4200D265
:1017100083E0019B029A02999A1A52082B000798BB
:10172000FFF7AAFD0400280024F0DEFF6D4B0F9A9E
:101730001B6820009A4200D1D2E023F015F8130074
:1017400008330393546883E7049B9B072FD1049BC2
:10175000664A1B68934202D0654A934227D10AAA7F
:1017600009A904980EF034F9099B581C019BC01874
:1017700083199800009324F088FF26000500002CB0
:1017800001D001260460019BB0009A00039928183B
:1017900022F08EFD019B0A999819099B80009A00FE
:1017A000281822F085FD019B099A9B188AE7019B66
:1017B000181D83199800009324F067FF2600050088
:1017C000002C01D001260460019BB0009A0003990F
:1017D000281822F06DFD019B0BA99B190498029318
:1017E000FFF764FE029B04909C000498FFF7D8FE6C
:1017F000061E00D168E7009B029A934207D8D900E1
:10180000280024F060FF0500009B5B000093029B12
:101810002E51013302930434E7E7B368E700D85947
:10182000002815D0042813D0009B184205D1314B55
:1018300002689A4201D103F04FF8019B019A9B0084
:10184000E85002320192B268EB18D7197A685A60F0
:1018500001345AE70BAA28493800FFF7B7FD0021E9
:101860000BAA080024F00EFA0021FFF71FFE019BCF
:1018700003909E000398FFF793FE041E00D148E7F3
:10188000019B009A01339A420BD853000093042B1A
:1018900001D204230093009B2800990024F013FF39
:1018A000050003231C4207D1124B22689A4203D140
:1018B000200003F011F80400E6210BAAFF313800E4
:1018C000FFF784FD0BAA002101200D9424F0DAF922
:1018D000019BAC5102330193AB1958600836C9E73C
:1018E00011B0F0BDBC2D0020ACEC020014010300CF
:1018F0007CF6020038FA02006B020000F0B5284DB9
:1019000089B02B680C0017000793830720D1036868
:10191000244A934202D0244A934219D102AA01A92F
:101920000EF056F8019BA34230D31FD80023029E2D
:10193000A000A34205D1079A2B689A422DD022F02D
:1019400013FF9900421A043AB25801337A50F0E773
:1019500003A9FFF7ABFD002306000193019B3000B4
:10196000A34206D3FFF71CFE0028E4D022000F4953
:101970000EE0FFF715FE002808D0019A0C49A31AC3
:101980005B189B000132D8510192E7E7019A09499F
:10199000094816F0BBFD0DF00BFE09B0F0BDC046C6
:1019A000BC2D0020140103007CF60200A0290300D6
:1019B000FFFFFF3F7D29030074130300F0B5FF24F0
:1019C0000E00424B85B01B68090A264015000393A0
:1019D0000C40830737D103683D4A934202D03D4A09
:1019E000934230D102AA01A90DF0F2FF01983319F8
:1019F000834261D883009C46002302999A00A34247
:101A000015D1B400801B0919C01AAD1827F0A4F82D
:101A1000029B28601C190023013601339E420DD120
:101A20002A4B039A1B689A424DD022F09DFE6746CE
:101A3000BF1A043FCF590133AF50DFE79A0051423C
:101A40006158A950E9E70021FFF730FD00230700A6
:101A50000193019BB34218D30021080027F07CF8C2
:101A600006003800FFF79CFD011E1BD1B168A142A2
:101A700022D3A3008A00EB181E60AA18091B9D42FE
:101A800014D1300027F084F8CAE73800FFF788FD4A
:101A9000002811D0019AB31A1B199B00013258512A
:101AA0000192D6E730000EF047F9DAE7F468D01A71
:101AB0002058043B1860E2E7019A0749074816F0EE
:101AC00025FD0DF075FD05B0F0BDC046BC2D002014
:101AD000140103007CF602007D2903007413030047
:101AE000F0B51D003B4B91B01B6806000F930C0036
:101AF00017000DF0D1FD384B98420CD12B003A0065
:101B0000210030000BF0A0FB324B0F9A1B689A4269
:101B10005DD022F029FE826A304B002A08D09C4218
:101B200030D13000904728600028EDD00120EBE74D
:101B30009C4227D1F9216A4649003000FFF714FC86
:101B4000009B002B0DD1D7216A4649003000FFF7DA
:101B50003DFC02946A460021012024F093F828609D
:101B6000E4E703A80DF0FEFC002807D16A46010057
:101B700024F088F828600DF013FDD7E7049B2B6054
:101B80000220C1E7002CDED138000DF085FD14499C
:101B90000DF082FB6A4600280ED012493000FFF794
:101BA000E3FB009B002B10D06A462100200024F0AC
:101BB00069F828602000A7E70B493000FFF7D4FB45
:101BC000009B002B01D00297C4E72F60D8E711B02B
:101BD000F0BDC046BC2D0020BCEA020048E6020071
:101BE0003C0F030019020000CD02000010B50400F4
:101BF00016F0E0FC002808D0002320001A0019008D
:101C0000FFF73AFB0400200010BD200028F0DFFAA7
:101C10000028F8D10249034828F0D5FAF2E7C04677
:101C200035290300FC12030010B50C4C86B0236864
:101C300003910593C30006201843094B00906946A1
:101C4000052001930293049208F0E8FE059A2368A8
:101C50009A4201D022F088FD06B010BDBC2D0020B4
:101C600048E60200F0B5384B8FB01B6800AF102279
:101C70007B630823BA18D21805000C00FFF774FB29
:101C8000FB69FB60002B06D022003049304816F07B
:101C90003DFC0DF08DFCB86900284BD1280009F0FF
:101CA0000DF80028F0D010220823B918CA18F8211E
:101CB00028004900FFF758FB1423B869F91802F00F
:101CC0008BFE7860200024F0ACFD6A467E6979685E
:101CD000751C4319BB600E33DB08DB00D31A9D462D
:101CE00032001800FB6022F0E3FA2E23FA6820008D
:101CF0009355551924F09AFD0600200024F091FD1B
:101D000031000200280022F0D3FAB968F86805F023
:101D100077FCC300062018430E4B38627B62BB621F
:101D20000D4B0520FB6201233B630F33FA18D118DA
:101D300008F074FE044B7A6B1B689A4201D022F0C3
:101D400013FDBD460FB0F0BDBC2D00209E28030042
:101D5000780F030048E6020030C60200F0B51C4EC2
:101D600095B01C4C0191316807001391616807A878
:101D7000029121686260039123600DF0F3FB051E60
:101D80001CD13B68019A390004A8009315F042FB6E
:101D90002B002A00009904A812F088FC23F063FFAE
:101DA00005000DF0FDFB029B28006360039B139A66
:101DB000236033689A4208D022F0D6FC029B089830
:101DC0006360039B23600DF0F3FB15B0F0BDC046CC
:101DD000BC2D00207C2E002010B5040012F0B0FEB7
:101DE000031E054802D0054923F07CFF2200044968
:101DF00016F08CFB0DF0DCFBE0100300C4270300A1
:101E0000ED270300010010B5014823F06BFFC04629
:101E100074130300F0B5B74B8DB01B6804900F002E
:101E200003920B93202803D191420FD0B24EBFE012
:101E3000049B1B2B01D01E2B0DD1039938000DF0F4
:101E4000D3FC049B002803D01B2BEFD1AB4EAFE09B
:101E50001B2BFBD1EAE7049B212B3FD1039816F003
:101E6000A9FB002806D00399380028F0B6F900280D
:101E7000ECD1DBE70324039B1C4005D1039AA04B64
:101E8000126805929A4223D0049B9E4A9B00380018
:101E90009C5826F03FFD0500039826F03BFD2B00E3
:101EA000009022009849994816F030FB4EE1039AC1
:101EB000A300D3189D68280016F07CFB002800D1F1
:101EC0005FE12900380028F088F90028BED10134EC
:101ED000039B5B680593A342E9D8A7E7012631423B
:101EE00000D11DE1039B4D101E4000D1ECE05C10C1
:101EF000049B1D2BC8D818001BF06EFA1E0028008A
:101F00002A002D0045004C004E00500063006C007C
:101F100081008900B9001E0028002A002D0045001C
:101F20004C004E00500063006C0081008900D1001D
:101F3000D500C6FFD900DD0025432E007000030048
:101F4000734000D5BBE00126064331E06540F4E76D
:101F50002C402600F2E7002C02DA6D48FFF752FF12
:101F60001F2C08DC6B4B2341AB4204DBC0231B0658
:101F70002341AB4205DDE917280025F034FB0700BB
:101F800051E0A540D9E7002CE7DB1F2C00DD1F2422
:101F90002541D2E72E19D1E72E1BCFE721002800DB
:101FA00015F0E2FE0028E6D1012665436D002E43C0
:101FB000504B0B9A1B6830009A4200D1E7E022F0A8
:101FC000D3FB002C00D1DEE02100280028F05AF8D5
:101FD0000600B3E7002C00D1D5E028001CF08CFBF4
:101FE000051C20001CF088FB011C281C1BF080FE37
:101FF000032302269843484B0643F618D8E7002CE3
:1020000000D1C0E02100280028F02CF8E0E72F00E4
:10201000002C29DA28001CF06FFB032302279843C9
:102020003D4B0743FF1838000DF036FB8369002B4A
:1020300000D129E7039A39000498984755E0012315
:102040001C4206D03900300015F08EFE002892D1D7
:102050007E43012C00D171E739003800641015F07F
:1020600083FE002887D17F43002CE8D166E7002C4F
:1020700000D188E00021022013F0BAFB2100060005
:10208000280027F0FFFF012740003843B0602100FF
:10209000280027F0E7FFB8400743F76088E7A5422C
:1020A00000DAD3E6C2E6A54200DDCFE6BEE6A542F1
:1020B00000DCCBE6BAE6A54200DBC7E6B6E63000B8
:1020C00025F0A0FA060073E70323039A1340022BBE
:1020D00026D1124B1340062B22D028001CF00CFBFB
:1020E000039A011C049813F0ADF9061E00D05FE7B7
:1020F000CAE6C046BC2D002028C6020030C6020039
:1021000014010300ECF1020030280300FC1203006C
:102110001B280300FFFFFF3F00008080070080FFB7
:10212000049B1F2B00D07EE703980DF0B5FA83695E
:102130000400002B0CD1636A002B11D1039826F008
:10214000E9FB14490200144816F0E0F90DF030FAEA
:102150003A00039904989847061E00D028E7EAE75A
:1021600007A90398FFF7A2F904002000FFF718FA67
:10217000002800D15AE639000DF036FB0028F4D0D3
:1021800064E6039580E60549054823F0ABFD0DB0F4
:10219000F0BDC04682280300FC120300552803004E
:1021A000B0130300010010B5014823F09BFDC046A9
:1021B000FC120300F8B504000D0017001E000029F2
:1021C00008D018680DF068FA6368834202D00548A9
:1021D000FFF7E8FF33003A002900A068FFF74CF84A
:1021E000F8BDC046AC27030001214000014310B5F3
:1021F000024827F0E1FF0DF0DBF9C046941103001F
:10220000010010B5014823F06DFDC04658110300D0
:102210000122010003001140100000290CD1080028
:10222000990709D11B68054910008B4204D0044866
:10223000181A43425841C0B27047C04690B90200D4
:1022400038C602000023FA21094A89001360094AAE
:102250001370094A1360094A1160094A1370094A48
:10226000111D0832D3670122CB67074B1A707047E4
:10227000A40100200A2E0020A0010020040000205C
:102280000B2E00207C2E00200C2E002010B5084BB9
:10229000084A1978002907D1916C002902D0FFF76C
:1022A000D1FF10BD30BFF4E700221A70F9E7C04635
:1022B0000C2E00207C2E0020837F0248002B00D1B2
:1022C0000148704730C6020028C602000023A02241
:1022D000E02110B583770C4BD2050902D1500B4891
:1022E0000EF000F80A480DF0FDFF0A480DF0FAFF65
:1022F00009480DF0F7FF09480DF0F4FF08480DF00C
:10230000F1FF084810BDC0460C05000068F9020046
:1023100070F9020080F9020088F9020098F90200C1
:1023200010F9020048E60200F8B5164C2368002BAD
:1023300007D1482029F0BCFA0500134918F040FBEA
:1023400025601248124902680B68D21A0123312A0B
:1023500004D9623393429B415B420233002201263F
:102360000C4D2E702F78032FFCD101329342F8D1FF
:10237000036820680B6028F0AEFC4300012018437E
:10238000F8BDC046A801002010BA0200D02F0020DE
:10239000AC0100200D2E002070B5124C88B02368CF
:1023A000114D07932B78012B13D1104B02221E687D
:1023B0000621002302A828F063F8082204A9684631
:1023C00021F076FF039B029A300018F05DFA022399
:1023D0002B70079A23689A4201D022F0C5F908B001
:1023E00070BDC046BC2D00200D2E0020A80100208D
:1023F000A02010B51049C0054B7F5A1C002B09D1F5
:102400004C8C0E4BA3430E4C03510E4B4A7752009B
:10241000D05A0FE010335B00CB185C88A123DB009F
:10242000C450092AF1D101200EF03CFAFFF7B4FFA5
:102430000120404210BDC04608000020F01F0000EF
:102440000C0500001C200300F7B51F4D041E2B686F
:1024500001930ED11D4E3378002B31D01C491D48FD
:1024600023F04AFC3470019A2B689A422BD022F058
:102470007BF9194E331DDF6F0DF00EF9174B21005C
:10248000984214D0164B2340062B05D0A30712D137
:10249000144B22689A420ED16946200002F09CFA41
:1024A000009B012B0CD1007823F07DFF0100380048
:1024B00023F022FCD7E70C490C4827F084FEB064D7
:1024C000FFF7C0FECFE7F7BDBC2D00200B2E00208C
:1024D00098BF0200080000207C2E0020F8BF0200F8
:1024E000070080FF38FA0200342A0300FC120300C0
:1024F000F7B5A123A021214AC905DB00CA50012359
:10250000C27F0D3293401E4A8B50C37F019201332C
:10251000DBB2032B2FD0C37702000300002122334C
:102520003632198002339342FBD10424C17F154F08
:102530004D000522EB5D7E195343134A7678D3187C
:102540009B190126A640B44662461B7901345B0004
:10255000C3185E8C063516435E840D2CE9D101222A
:102560000D318A40A023A121DB05C9005A50828E7B
:1025700001995A50F7BD0023CDE7C046F01F000077
:102580000C050000C829030008000020F0B53E4EED
:102590008FB033680D933D4B1A78022A07D1A022E1
:1025A0003B49D2008A58012A07D003221A70394DBC
:1025B000AB7F002B07D1FFF7EFFE0D9A33689A42ED
:1025C0005FD022F0D1F82800FFF792FF324A33495A
:1025D00013680968063313608B4207D30024304B1D
:1025E00014601B78012B0FD0022B45D000232A8CBE
:1025F0006B77FF33FF331A42DDD0E1222949D20045
:1026000001200EF01BF9D8E7274F3B1DDB6F002B95
:1026100004D03B000833DB6F002B02D1FFF712FE22
:10262000E4E712F079FA01A80CF09CFF00280CD125
:102630001E4B1868FEF780FF04000CF0B1FF12F08B
:1026400075FA2000FFF700FFD0E712F06FFA029B47
:10265000174918680CF020FE0028F2D102980DF0FE
:102660001BF8144B984203D11349144814F04AFC48
:10267000029B0024BB64E4E71149280023F03CFBE3
:10268000CCE70FB0F0BDC046BC2D00200D2E0020C1
:102690000070004008000020A0010020040000207D
:1026A0000A2E0020F12300007C2E0020A40100202F
:1026B00048120300E01003006E2A030058070300CD
:1026C00098BF0200F0B5002485B0154D02930AAB07
:1026D0001B782E1D07000835080021000192039386
:1026E000F467EC67FEF7E2FE0E4B019A18600E4BA2
:1026F000F7671A60029A0D4BE8671A700C4B1C7052
:10270000FEF71AFFFFF7A0FE01220A4B1C600A4BDE
:102710001A70039BA34201D0FFF7B8FD05B0F0BDCE
:102720007C2E0020A4010020040000200B2E00209D
:102730000C2E0020A00100200A2E0020F0B500245D
:102740003D4B8FB01B6801380D933C4B1D1D08336A
:10275000DC673B4BEC6708AD80C90195009305230E
:10276000FEF79EF96B68089C049306942B7B2E7AE7
:1027700005932B7C20000393FFF74AFD314D002881
:1027800006D103232340022B09D12C40062C06D06E
:1027900006AB002201212C4801F03AFB0690069876
:1027A0000540062D05D0830735D1274B02689A4294
:1027B00031D107A902F010F9079B002B23D0012B80
:1027C0000DD1002E0BD1039B002B08D1007823F0F4
:1027D000EAFD06900699380023F08EFA13E0069879
:1027E00000F0E0FD069008AB1B7C002B03D00698A0
:1027F0000DF02CFA0690059B049A0093069933007D
:102800003800FFF75FFF0C4B0D9A1B680F489A4288
:1028100010D021F0A9FF0CF03FFF0D4B9842E2D100
:10282000002E02D1039B002BD4D006A9012012F068
:10283000DFFFD7E70FB0F0BDBC2D00207C2E0020BD
:10284000BCBA0200070080FF38FA020048E6020026
:10285000F8BF0200F0B51F4E8BB0336804AD09938A
:102860001D4B80C90138009301950523FEF718F927
:10287000049C20000394FFF7CBFC002807D103231E
:102880002340022B0AD1154B1C40062C06D003AB6B
:1028900000220121124801F0BBFA039002A903981B
:1028A00002F09AF82A7C2B7B02990092049A00F09D
:1028B00063FD2B7A010000936A6800233800FFF75C
:1028C00001FF099A336807489A4201D021F04CFF72
:1028D0000BB0F0BDBC2D0020E4BA0200070080FF61
:1028E00038FA020048E602000022074B10B51A70C1
:1028F000064B02321A70064B064A1B68063B1360F1
:10290000FFF7C4FC10BDC0460C2E00200A2E00208C
:1029100004000020A001002010B5FFF7E5FF0148EA
:1029200010BDC04648E6020010B5042901D8042AAB
:1029300002D90948FFF766FA092B01D90748F9E7D8
:102940000524614341188A18137101229A40038CAF
:102950001343038410BDC046412A0300552A0300D7
:10296000F8B548680C000D680CF090FF0600A068F0
:102970000CF08CFF0700E0680CF088FF3A000300C1
:1029800031002800FFF7D0FF0048F8BD48E60200FC
:1029900010B5042901D8042A02D90448FFF732FAF5
:1029A0000523594340188018007910BD412A0300BF
:1029B00070B5104C050021000F480DF0A9FC210056
:1029C0000E480DF0A5FC21000D480DF0A1FC2100E2
:1029D0000C480DF09DFC21000B480DF099FC2100E6
:1029E0000A480DF095FC23F00DFA01230848AB7757
:1029F00070BDC046D8F6020068F9020070F9020006
:102A000080F9020088F9020098F9020010F902002A
:102A100048E60200054B10B59A6C002A04D000224B
:102A2000986C9A640CF0C4FD10BDC0467C2E00204A
:102A30000048704734BC0200F7B50600194D0C0081
:102A4000280021F0B3FD3100174821F029FD174877
:102A500021F0ACFD164821F0A9FDFF239B00E618EC
:102A600021787F2901D0A64206D1280021F09EFDC1
:102A7000104821F09BFDF7BD6278A37850290CD84F
:102A80000D48475C0D48405C019300923B000200FA
:102A90000B4821F005FD0434E2E70A4821F000FD6F
:102AA000F9E7C046B62B0300E32B0300EB2B030032
:102AB000742B0300922B0300B7410300664103000F
:102AC0000C2C03002F2C0300F0B51D0087B006006E
:102AD0001A4817000C0021F069FD2900184821F060
:102AE000DFFC184821F062FD174821F05FFDAD00C2
:102AF0006519AC4204D1114821F058FD07B0F0BD72
:102B00003878A2780490206823780003400E039060
:102B1000E0789B060009029020883178C004400EBE
:102B20000190E0789B0E0007000F00901209074803
:102B300021F0B6FC043401360137DAE7B62B030086
:102B4000032B0300302B0300622B0300942B0300A4
:102B50000300203B5E2B00D93F2005232038434350
:102B6000014A1068C018704768000020044B0B60D1
:102B700043684B6083680800CB6000238B6070471C
:102B8000ECBC020070B5050008006843013040103D
:102B900008300C0023F079FD0122044B857103609D
:102BA000037944719343037170BDC046F8BF0200BE
:102BB00010B50379DB0702D50148FFF7F3FA10BD22
:102BC000502C030070B50500202023F05EFD052188
:102BD0000B4B040003600800FFF7D4FF6B68EA6842
:102BE000A060236162602A7C2000A276AA689B18FC
:102BF00063616B7CE37623F068F9200070BDC0460A
:102C00003CC0020070B50D000400FFF7D1FF2800A2
:102C10000CF03CFE0100092802D90448FFF7F2F845
:102C2000200023F0B4F9024870BDC046552A0300C5
:102C300048E60200F7B5C3684269040093420BD12D
:102C4000037E052B08D1C37E181E43D0200023F03D
:102C50003CF9A06823F0A9F9012500266B1E019319
:102C6000A76832002900380023F05DF93200030024
:102C700001993800013623F063F9052EF0D10135B2
:102C8000052DEAD100252A0000230421A068013582
:102C900023F056F9052DF6D1227E637E9A421AD290
:102CA000207FFFF755FF002507000426227E7B5D6D
:102CB000B21A1341012213400832534304212A005F
:102CC000A068013523F03CF9052DEFD1237EA068E3
:102CD00001332376FEBD9A42F8D1E36861695A1C3C
:102CE000E2608A4205D120232377A023DB002383DF
:102CF000ECE758782077FFF72BFFA17E050000292D
:102D000001D0064BF3E723F0B7F8404220762800C5
:102D100023F0CAF801306076D8E7C046FF0500000E
:102D2000F0B50C000B6889B0070018000493FFF79A
:102D30003FFF656828000CF0AFFC1E4B984202D0A4
:102D40001D48FFF72FFA072F01D11C48F9E7A068AB
:102D50000CF09CFD0690E0680CF098FD079020694F
:102D60000CF094FD059060690CF090FD059B060049
:102D7000002B01DB002802DA1148FFF743F8062F89
:102D800014D0A0690CF082FD0700E0690CF07EFD14
:102D9000059B03900093280002970196079B069AD3
:102DA000049923F030F9074809B0F0BD002007006E
:102DB000EEE7C046F8BF02007D2C0300902C030014
:102DC000AA2C030048E6020070B5040008001600B3
:102DD0000CF05CFD050030000CF058FD0600002DE5
:102DE00001DB002802DA0C48FFF70CF8200023F082
:102DF000F5F8A84204DD200023F0FEF8B04201DC23
:102E00000648F1E732002900200023F0D9F84300FA
:102E10000120184370BDC046ED2C0300062D0300B1
:102E2000F8B50D000C682000FFF7C2FE68680CF0D2
:102E30002DFD0600A8680CF029FD0700002E01DB1F
:102E4000002802DA0F48FEF7DDFFE8680CF01EFDEF
:102E50000500092801D90C48F5E7200023F0BEF849
:102E6000B04204DD200023F0C7F8B84201DC074877
:102E7000E9E72B003A003100200023F061F8044814
:102E8000F8BDC046ED2C0300552A0300062D0300B3
:102E900048E60200F7B50E0025490400019214F03F
:102EA00031F8019B002B03D12249200014F02AF8AD
:102EB0002149200014F026F80025300023F09CF86A
:102EC000A84225DD0027300023F088F8B8420CDD49
:102ED00039002A00300023F073F8184B18491A5CA7
:102EE000200014F00FF80137EDE71649200014F028
:102EF00009F8019B002B09D1300023F07DF801383F
:102F0000A84203DD1049200013F0FCFF0135D4E78F
:102F10000949200013F0F6FF019B002B03D10B4958
:102F2000200013F0EFFF0A49200013F0EBFFF7BD7C
:102F3000932D03009A2D0300A62D0300A82D030056
:102F4000413E03000CA80300A02D0300B144030080
:102F50003BA1030037B504000D4D69462B6840685E
:102F6000019301F039FDA268009900238A4207D23B
:102F7000815CE06823F0FBF9A3680133A360E36898
:102F80001800019A2B689A4201D021F0EDFB3EBD5A
:102F9000BC2D0020F7B50F4D04002B680E000193E7
:102FA0000020042A0FD16946606801F015FD002356
:102FB00007003200009920680CF04CFD395CA068D5
:102FC00023F0D5F9A068019A2B689A4201D021F02C
:102FD000CBFBFEBDBC2D0020F0B50E001100002281
:102FE0001C00754B8BB01B683000099300920323C3
:102FF000FDF726FD032E00D9D9E030001AF0E2F9E2
:10300000020B959505210800FFF7BCFD070038006D
:1030100022F0CBFF16E02068684B0340062B05D05A
:1030200083077FD1664B02689A427BD106A901F0E3
:10303000D3FC069B03900593012B0CD1007823F061
:10304000B2F907005C4B099A1B6838009A4200D11C
:10305000AFE021F089FB00231E00039A029303993D
:103060000598511A884215DD11780A2901D03A29AC
:1030700008D19E4200DA1E00029B01330293002316
:103080000132ECE701332029FAD03929F8D94D482B
:10309000FEF7B8FE002B05D0029A013202929E4242
:1030A00000DA1E0002993000FFF76CFD00250700D2
:1030B0002C00039B0493039A049B9B1A059A9A4243
:1030C00023DD049B1B780A2B01D03A2B0FD1A6429B
:1030D00007DD210000232A00380022F031FF0134EF
:1030E000F5E700240135049B01330493E3E7202B2B
:1030F00007D1002321002A00380022F021FF0134EB
:10310000F1E7392BEFD8303BF4E7029BAB4299DD76
:10311000A64297DD210000232A00380022F010FF8C
:103120000134F5E72848FFF73DF820680CF0AEFBC6
:10313000050060680CF0AAFB029001002800FFF770
:1031400021FD0700022E00D161E7012206A9A06837
:103150000CF070FD002D0BDB029B002B08DB002424
:10316000079B03940493029B049A6B43934205D0FC
:1031700016488DE7039B01345B190393029B9C4225
:1031800000D15FE70026AE42F4D0039A069B944636
:10319000049363449A5D131C092A00D90923310062
:1031A000DBB22200380022F0CBFE0136EBE7084804
:1031B000B9E70BB0F0BDC046BC2D0020070080FF72
:1031C00038FA0200162D03003F2D0300572D03008F
:1031D000742D0300F0B585B0019105000021019820
:1031E0001AF0CAFA041E02D02148FEF70BFE28008E
:1031F00022F0F4FE0600280022F0FEFE010030005E
:10320000FFF7C0FC0700280022F0E8FEA0422CDDFA
:103210000026280022F0E2FEB04224DD3200210028
:10322000280022F0CDFE1BF067FA01991AF038FF52
:103230001DF03CF800220F4B1BF0E8FA0E4B002269
:10324000029003911AF05EFA0923002804D0029834
:1032500003991CF0BBFF030032002100380022F06C
:103260006FFE0136D5E70134CDE7380005B0F0BD7B
:10327000C22C03000000E03F00002240F0B587B000
:1032800004910592070022F0B7FE0400380022F0F6
:10329000A5FE0290049822F0AFFE0190A04202D059
:1032A0001948FEF7AFFD01990298FFF76BFC002566
:1032B0000390029B9D4223DA0026019BB3421DDD51
:1032C00032002900380022F07BFE32000400290081
:1032D000049822F075FE059B002B0AD02318092BB9
:1032E00000DD092332002900039822F029FE01366F
:1032F000E3E7231ADA43D2171340F3E70135D8E79F
:10330000039807B0F0BDC046B32D0300F8B5040024
:1033100008000D0016000CF0BFF9164FB84201D09E
:1033200000200FE0053C042CFAD820001AF040F8E9
:10333000141403F80B0030000CF00CFB011C2800E7
:10334000FFF748FFF8BD30000CF004FB011CFE2025
:1033500080051AF0CDFCF1E730000CF09DF9B84281
:10336000DED1624262413100D2B22800FFF786FF0F
:10337000E8E7C046F8BF0200F7B507000193142044
:1033800008AB0E0015001C7823F07FF9044B476052
:103390000360019B8660C56003744474FEBDC04633
:1033A00078C0020070B505000C2023F06EF90521ED
:1033B000044B0400456003600800FFF7E3FBA060D6
:1033C000200070BDA0BC020070B504000D001049C3
:1033D00026F0F8FC6968012220000CF075F90D4E0A
:1033E0002000310026F0EEFCA968012220000CF03C
:1033F0006BF93100200026F0E5FCE968012220008D
:103400000CF062F90449200026F0DCFC70BDC046D7
:10341000D02D0300D72D03003BA1030070B506009B
:1034200010200D00140023F030F9034B4660856036
:103430000360C46070BDC046B4C002000523020032
:1034400070B5094C094D2068434309489B189B00FF
:1034500018582B682260C0180F23194009012860F2
:103460000BF094F870BDC046B00100206C2A00201B
:10347000F0C00200A839030000B5080006292ED8C4
:1034800019F0A0FF040A10161B2128009A18E22345
:10349000DB00D218107800BDC4329200D05C8006E8
:1034A000800EF8E7C4329200D05AC004400EF2E712
:1034B000C4329200D0580003F8E7C43292009A1840
:1034C00090780009E7E7C43292009A18D078000794
:1034D000000FE0E7C43292009A18D078F1E7024B6F
:1034E000024A00201A60D6E740000020DA2D0300CF
:1034F000A83910B504000800062949D819F062FF60
:10350000040A141F2A343F00E221A218C9005218ED
:10351000137010BD3F210B401800C4329200135DA0
:103520008B4303431355F4E77F21C43292001940C3
:103530001948135B890103400B431353E9E77F21CB
:10354000C432920019401059144B490303400B43F5
:103550001351DEE70F20C4329200A21819019378AC
:1035600003400B439370D4E70F210B401800C43283
:103570009200A218D3788B430343D370C9E70F207E
:10358000C4329200A218D1781B0101400B43F4E72A
:10359000034B044A1A60BCE73FE0FFFFFF1FF0FF48
:1035A00040000020F82D0300F0B5D2B285B00E0027
:1035B0000293072113000B40013BDBB2042B02D91D
:1035C000294C2A4D25608A431F02002A24D1284B0A
:1035D0003578C45C274B2409E443E4B22D1BDB1986
:1035E000EDB2039308276319039ADBB2D35C5A0048
:1035F000D2B25BB20192002B33DA1A210320013FD1
:10360000FFB2FFF71BFF019B002FF0D10134E4B2A2
:10361000002CE7D135701AE0D4431749E4B2CE5CF0
:103620000825144B1B19DB5D5A00D2B25BB2019224
:10363000002B0FDA05210220FFF700FF013DEDB25C
:10364000019B002DF0D10134E4B2002CE8D10298A6
:1036500005B0F0BD31000120FFF7F0FE002EE9D0EB
:10366000ECE706210420CAE740000020E52D030016
:103670001907000070330300CB3903000022F0B5B6
:1036800005000F00FF200F246B4B8BB01B686B4EA7
:10369000099308ABDA700100C431890069188B788E
:1036A0001A09B25C234012011343CA788B701307C6
:1036B0001B0FF35CA243234013431A09B25C23405F
:1036C00012011343CB700138E5D2E223DB00EE5C3C
:1036D000B308F31ADBB20493594B1B68002B0BD0D1
:1036E000E222C4218120D200890000013B00AA18F7
:1036F00069182818FFF7E8F9002448230294039377
:103700000194009481222B1912019B181B78180038
:1037100005930723984320D008A92300059A033175
:103720002800FFF741FF0230C4B2023FFFB2002F72
:1037300078D02B780393013EF6B2002E47D1E222D7
:103740002B19D2009B181E78B308F31ADBB204932E
:103750000023029301930093D4E73A4B009A9C46CE
:103760009A5C2300C4339B00EB18997809090A433B
:1037700035498A5C019907926246DB78525C1907E9
:10378000090F0A4330491B098A5C30490692029AA4
:103790008A5C06991343079A8A182B49C95C01234E
:1037A0008918FF2A00DC031CC918882309061B0698
:1037B000C918090F0020FFF741FE039B013BDBB254
:1037C0000393002BB7D10134E4B2013FAEE7049B71
:1037D000013BDBB20493002B02D1059B002B18D1D7
:1037E0002200C4329200535D00999B069B0ECB18B9
:1037F000DBB20093535B0199DB045B0ECB18DBB2A9
:1038000001935359029A1B035B0ED318DBB2029348
:1038100078E708A92300059A03312800FFF7C4FEC2
:1038200004008CE7044B099A1B689A4201D020F0EF
:103830009BFF0BB0F0BDC046BC2D0020F42E030052
:10384000942A0020C0380300CC30030070320300FB
:10385000064B1B5C002B05D0054B185C4843C01180
:10386000C0B27047034B185CFBE7C0461C32030034
:1038700095300300552F0300064B1B5C002B05D031
:10388000054B185C4843C011C0B27047034B185C2D
:10389000FBE7C0461C320300D0390300A52F03000C
:1038A000F0B5037A8DB004007F2B00D157E10300FF
:1038B000070000250933FF330837099301953E7847
:1038C0007F2E00D087E000230693019306998B009A
:1038D000E31803931A7A481C1B7BC0B206907F2B17
:1038E00000D11BE19F49CE5C8D5C9F49AE4200D068
:1038F000F1E08D5CCB5C0493039B597A019B5918D2
:10390000CBB20193049BEB18DBB20793023B1B067F
:10391000DCD4A827019B5D1BEBB20593A82F00D038
:10392000E1E0039B039A5B7A527B5B08520899188B
:103930000291019901988A18E221C31AD2B2DBB22E
:10394000C900A218E31852185B18157818782D1AB8
:10395000EDB27F222B006DB293430893EB17E8186A
:103960005840029919F0B2FE2800CBB2029909938F
:1039700019F0C6FD059A00251600C3B20A93029BF2
:103980009B18DBB20B93320039002000FFF772FD69
:103990000A9B01360B9AC018F6B2C3B2964200D108
:1039A000B6E0099AAD18029AEDB2AA420DD8AD1A46
:1039B00020216A4652181278EDB252B2002A00DA7B
:1039C000A4E0002B01D00133DBB23200390020002B
:1039D000FFF78EFDD7E7012E77D12B003100019A3A
:1039E000200022F0F4FCBA78604BA1789B185B7839
:1039F00030000193FB780893FFF72AFF3F23E1781B
:103A0000034030000293FFF737FF7F22584B9B5D46
:103A10001A40584B03929A5D0F231A400492564A5B
:103A2000925D1A400592554A925D1A4006923F22D5
:103A3000534B9B5D07937B78EB18DBB20A93029B99
:103A4000134002937F23184083019C462A003F21A4
:103A5000C4329200135D0F268B4302990B4313551A
:103A6000135B48490B4061460B431353039B1059AA
:103A70005903454B03400B430498190C3140000196
:103A800013510843A21890701B0E0598B343069972
:103A9000034309011E400E43D67081226319079922
:103AA00012019A181170E222D2009B180899019A0B
:103AB000013552181A700A9BEDB29D42C6D1099B7E
:103AC0000437BB4200D0FAE6FDE6022E8BD12B0074
:103AD000019AFF2184E72D48AE4201D9C55C09E770
:103AE0008D5C835C07E7049B019A39009A18D2B277
:103AF0002000FFF7BFFC059A050039002000FFF702
:103B0000B9FC079B2D1AEDB2029322E7013B5BE75C
:103B10000137FFB2AF2F00D000E7D7E602318900AE
:103B20006118019B497859186368C9B2002B13D1F9
:103B3000E22381221648DB001201E318A518001BBE
:103B40001A18C4329200125D1E789206D20EB21A72
:103B50001A7001339D42F3D12000FFF78FFD0DB0A5
:103B6000F0BDC046052F0300CC310300C03903006F
:103B7000F52F0300042E0300542E0300A42E03008F
:103B8000703803003FE0FFFFFF1FF0FF45300300E8
:103B9000F0F8FFFF032230B502400121002A04D1D2
:103BA000084C05680B00A54209D00B00034006D164
:103BB000002A04D1036804481B1A584243411800E4
:103BC00030BDC04638C6020090B9020010B50400EE
:103BD000FFF7E0FF012200280AD10323020023405F
:103BE000022B05D103480440063C2200541EA2418A
:103BF000100010BD070080FF044B88600B60044B71
:103C000008004B600023CB607047C046A8D4020078
:103C10009546000010B50BF03FFD084B4268084880
:103C2000D31859424B41AC215B428B43B0218900F0
:103C30005B18044914F06AFC0BF0BAFC40FDFFFF6E
:103C4000FC120300073A0300F7B504000E000193CD
:103C500001208B180A0000210093009B934212D888
:103C60002725002900D0053D224F2A0039002000D9
:103C700013F048F9009B9E4214D32A00390020001B
:103C800013F040F9F7BD1378272B08D0223B5D4293
:103C90006B41DBB20132002BDFD02725E4E70023A4
:103CA0000100F7E73278AA4205D12A001249200024
:103CB00013F028F91AE011495C2A14D01F2A09D9F7
:103CC0007F2A15D0019B002B02D053B2002B07DBBB
:103CD0003900ECE70A490A2A05D00A490D2A02D020
:103CE000092A05D10849200026F06CF80136C1E701
:103CF0000649DCE7413E0300403E0300443E03002A
:103D0000473E03004A3E03004D3E0300503E030081
:103D1000194B70B506000C0098420FD14968A06895
:103D200003F03CFC051E09D0200023F0C7FE002351
:103D3000ED00236006331D43280070BD102022F0E3
:103D4000A4FC6168050081600660A06803F008FCBF
:103D500063686860591C2368994208D1A368EB60C6
:103D60000023EA68A9685354A3602360E4E7A068CD
:103D700022F0A9FCE860F3E738FA020070B504000D
:103D80000D00002A05D003F03BFCC30006201843B9
:103D900070BD03F003FC0028F7D12A00210002487F
:103DA00022F072FBF4E7C04638FA020010B50A00B0
:103DB0000100024822F068FB10BDC04664C1020049
:103DC000094B10B50340062B01D1C00810BD830775
:103DD00008D1064B02689A4204D18168C06803F09A
:103DE0000FFCF3E7FFF716FF070080FF38FA020029
:103DF000064B10B50340062B03D1C00822F01BFD73
:103E000010BD8368C0680B60FAE7C046070080FFFA
:103E1000F0B50E0000252C4F1C003B688DB00390C0
:103E200011000B933000009503232A00FCF708FED5
:103E30000E20AE420FD0012E13D105AA102107A8E3
:103E400006F060FA216805A82A000BF03DFC07A9DE
:103E50000398FFF75DFF0B9A3B689A4232D020F03F
:103E600083FC2068830723D1184B02689A421FD134
:103E700007A9FFF7BDFF164B050020680340062B7E
:103E800014D1C00822F0C8FC0400002C04D107990A
:103E9000280003F065FB04001020079E22F0F5FBCC
:103EA000039B86600360C5604460D4E74468ECE728
:103EB00007A901220BF0BEFE002208990798FFF720
:103EC0005DFFC8E70DB0F0BDBC2D002064C102004D
:103ED000070080FFF0B53B4E8FB0336804000D93B0
:103EE00003910BF0D9FB05A907002000FFF780FF25
:103EF000039B019034489A0705D11B6883420AD07E
:103F0000324A934207D0C36800220293012103ABD7
:103F1000029CA0470390002407AA06A903980BF06F
:103F200057FD2500069BA34212D82900002509A8A9
:103F300023F0B3FD0B9C069BAB4228D809A938009F
:103F4000FFF7E6FE0D9A33689A4238D020F00CFC59
:103F5000A3000293079BA20098580BF09DFBB84268
:103F600002D01B48FEF71EF9002C01D0059BED186E
:103F7000079BA2009858174B0340062B05D1C00899
:103F800022F04FFC2D180134CCE78068FAE7002DB1
:103F900006D02000059A019920F08AF9059BE418C3
:103FA000079AAB00985808A9FFF722FF089A01006A
:103FB000200020F07DF9089B0135E418BBE70FB025
:103FC000F0BDC046BC2D00207CF6020014010300A9
:103FD0007D3E0300070080FFF0B58DB00793334BA3
:103FE00004901B6808680D0006920B930BF054FBBD
:103FF000040068680BF050FB0600A04202D068681D
:10400000FFF708FE09A92868FFF7F2FE04000AA9D5
:104010006868FFF7EDFE099A0590A3180393049BC7
:104020002700022B19D9AB6821498B4206D0012108
:104030003000009121000CF065FD0700049B032B6C
:104040000BD0EB681A4A934207D00122210000925C
:104050003000099A0CF056FD0390039B059AD91B7A
:10406000069B380000930A9B22F0EFF9002806D146
:10407000079B0138002B0CD00E48FDF7C3FE0E4BFA
:104080009E420DD10100200025F086FD4400012054
:104090002043064B0B9A1B689A4204D020F064FB25
:1040A000041B6400F3E70DB0F0BDC046BC2D00203A
:1040B00048E60200693E030038FA0200F0B51B4EE4
:1040C00089B03368039008680D0007930BF0E4FA99
:1040D00005A907002868FFF78BFE06A90400686899
:1040E000FFF786FE039B02902000022B07D90123D5
:1040F0000093AB68059A210038000CF003FD069A86
:10410000041B059BA4180A4D9C4205D8029920F077
:10411000A9F8002800D1074D079A336828009A4271
:1041200001D020F021FB09B0F0BDC046BC2D00201D
:1041300028C6020030C60200F0B50F00144D85B04D
:104140002B6801A9060038680393FFF751FE02A906
:1041500004007868FFF74CFE0100022E02D90D48DA
:10416000FEF74EF8029A01980B4E824206D8801A4A
:10417000201820F077F8002800D1084E039A2B6809
:1041800030009A4201D020F0EFFA05B0F0BDC046F1
:10419000BC2D0020573E030028C6020030C6020096
:1041A000F0B5404B8FB01B68079010680C001600EC
:1041B0000D930BF071FA0690012C36D070680BF05D
:1041C0006BFA069B984202D07068FFF723FD0CA99A
:1041D0007068FFF70DFE0C9B089009930CA93068DE
:1041E000FFF706FE0C9B0B900493079B012B21D13C
:1041F000049B5D1E01235B420A9300242700049B5D
:1042000003940593059B002B18D1039B002B28D109
:10421000254B069A0E209A4200D02448214B0D9A35
:104220001B689A423BD020F09FFA07230993204B4A
:104230000893D3E7012300250A93DEE70B9B099936
:104240005A1901230898009322F0FFF8002816D18C
:10425000039B002B19D1079B002B09D12F00049B36
:104260005C1E049B0134E21B934212D13068D5E7F7
:10427000079B2C00012B0AD001232F0003930A9BDC
:10428000ED18059B013B0593BCE72C00F7E7039F66
:10429000E7E70B9B0698D91922F0F6F8BEE70FB0B6
:1042A000F0BDC046BC2D002038FA020054C1020007
:1042B000D63E0300F0B5574B95B01B680C00139326
:1042C000042810D1C8680BF0E1FA002808D1206852
:1042D000504B139A1B689A4200D199E020F044FA9F
:1042E0000690002802DA01235B42069320680BF057
:1042F000D3F9050060680BF0CFF90790A84202D00F
:104300006068FFF787FCA0680BF0C6F9079B834243
:1043100001D0A068F5E70CA92068FFF769FD0DA999
:1043200009906068FFF764FD0EA90B90A068FFF785
:104330005FFD0D9B0C9A0A9000269342C7D80D9BF7
:104340000C9F002B5BD1002E04D00E9A0A993000EE
:104350001FF0AEFF0E9B039301230493099D26E0FB
:10436000089F7B425F41059BDB1905935F1B002E75
:1043700005D0039B3A00F01829001FF099FF039B1A
:10438000DF19002E04D0F0190E9A0A991FF090FF41
:104390000D9A0E9B9446FB180393059B0C9A63445D
:1043A0001D00099B9F18049B7F1B01330493049BF2
:1043B000069A93420ED0002F0CD00D9B0B9A0893B7
:1043C0000123390000932800089B22F03EF8059055
:1043D0000028C5D1002E05D0039B3A00F018290013
:1043E0001FF066FF039BF918002E0CD1049B002BD5
:1043F00000D16CE70FA823F050FB119E9FE700232C
:1044000004930393AAE70FA90798FFF781FC5FE7DE
:1044100015B0F0BDBC2D0020F0B5344B8BB01B683F
:10442000049008680D0009930BF036F904006868E1
:104430000BF032F90700A04202D06868FFF7EAFBF0
:1044400007A92868FFF7D4FC060008A96868FFF7E9
:10445000CFFC079A0590B3180393049B3400022BFA
:1044600019D9AB6822498B4206D00121380000914E
:1044700031000CF047FB0400049B032B0BD0EB68CE
:104480001B4A934207D00122310000923800079A5C
:104490000CF038FB03900025089BAB4217D1039B1F
:1044A0002000191B25F087FB0130450001200F4B30
:1044B000099A1B6828439A4215D020F055F90599AE
:1044C00020001FF0CFFE002808D101353400089AE3
:1044D000039BA6189E42F2D96D00E7E7200025F065
:1044E00052FB0600F2E70BB0F0BDC046BC2D002029
:1044F00048E60200F0B50E00144D89B02B6802A901
:10450000070030000793FFF773FC00240090029926
:1045100003A823F0C2FA059B0193029BA3420BD888
:1045200030000BF0B9F803A9FFF7F2FB079A2B68EC
:104530009A4208D020F018F9009B185DB847019BFB
:1045400018550134E9E709B0F0BDC046BC2D002084
:1045500010B501000148FFF7CDFF10BDD79B020049
:1045600010B501000148FFF7C5FF10BDE99B02002F
:10457000F0B51F4F85B03B680600080002A9039301
:10458000FFF736FC029B0500002B06D11948039A61
:104590003B689A422AD020F0E7F8174B04009E426D
:1045A00009D100230193029A631B9A4212D8019BFE
:1045B000002B07D1EAE7114B9E42F2D0029A631B0F
:1045C0009A4201D80E48E2E72078B047013400282B
:1045D000F4D1DBE7207811F02FFE002804D02078FA
:1045E000B04701900028D1D00134DCE705B0F0BD20
:1045F000BC2D002028C60200A1620100B9620100A2
:1046000030C6020010B501000148FFF7B1FF10BD30
:104610002162010010B501000148FFF7A9FF10BD9C
:104620003962010010B501000148FFF7A1FF10BD7C
:104630005162010010B501000148FFF799FF10BD5C
:10464000A162010010B501000148FFF791FF10BD04
:10465000B962010037B50E4D0C002B680193012A99
:104660000ED16946FFF7C4FB009B206063604223C4
:104670000020A360019A2B689A4208D020F074F8B9
:1046800000230B604B60013B8B600120F2E73EBDD5
:10469000BC2D002037B50D4D04002B68694680689D
:1046A0000193FFF7A5FBE3680099020000208B420D
:1046B00005D2D25C0130520001331043E360019A0D
:1046C0002B689A4201D020F04FF83EBDBC2D00204F
:1046D000F0B51F4D89B02B68060007930C000192BE
:1046E0000AF0DAFF03A907003000FFF781FB019B06
:1046F0000600042B27D10398A30719D1154B226874
:104700009A4215D104AA210005F06EFC002802D1BE
:104710001148FDF775FD0499059A3800521A711871
:1047200021F0B2FE079A2B689A420ED020F01CF8B6
:1047300000230100220038000BF08CF9335C0120CB
:104740005B001843EEE70020ECE709B0F0BDC0467F
:10475000BC2D0020B4C00200653A0300F0B5414E04
:104760001D0033688FB00D93002976D028683E4C29
:1047700003002340062B05D083072AD13B4B026858
:104780009A4226D10239012964D805A9FFF730FBE6
:10479000070028680440062C19D1C00822F03CF814
:1047A0000400002C04D10599380002F0D9FE040061
:1047B0001020059D21F069FF2D4B85600360C760C7
:1047C00044600D9A33689A4249D01FF0CDFF446887
:1047D000E7E701293ED80122104210D04410210001
:1047E00005A823F05AF9079B220000211800019325
:1047F0001FF0F0FD05A91E48FFF78AFAE1E702A9BC
:1048000024F09FF8002805D0039A0299184821F057
:104810003BFED6E728680BF06DF91021002800D088
:10482000411005A823F028F909A92868FCF73EFEE5
:1048300004002000FCF7B4FE0028DBD00BF026F8C3
:10484000FF2802D90B48FDF7DDFAC1B205A823F015
:1048500073F9EEE70848FDF7A5FC0848B1E70FB08B
:10486000F0BDC046BC2D0020070080FF38FA0200D2
:1048700064C10200323A03004B3A030054C1020003
:10488000F7B5124D04002B68080069461700019324
:10489000FFF7AEFA0600042F0BD10300009A0C4973
:1048A000200012F02FFB019A2B689A420CD01FF0C7
:1048B0005BFF0849200025F085FA0123009A3100AA
:1048C0002000FFF7C1F9EEE7F7BDC046BC2D002080
:1048D000C23E03001B4F030013B5094C6946236811
:1048E0000193FFF785FA009902F08AFEC3000620C3
:1048F000019A184323689A4201D01FF035FF16BD74
:10490000BC2D00200A00F0B5204D85B02B680600B4
:1049100003931F4B0C001A400340062B0CD1062AB0
:1049200004D1441A60426041C0B212E0C00821F0D4
:1049300073FF0700606805E04768062AFAD1C808D7
:1049400021F06AFF002F0AD0002808D0B84206D014
:104950000020039A2B689A4215D01FF005FF01A989
:104960003000FFF745FA02A906002000FFF740FAE1
:10497000019A029B01009A42EAD130001FF072FCBA
:1049800044426041D0E705B0F0BDC046BC2D0020D8
:10499000070080FF13B50D4C236801930C4B0340B7
:1049A000062B06D083070DD102680A4B92699A4202
:1049B00008D16946FFF71CFA019A23689A4203D08E
:1049C0001FF0D2FEFFF726F916BDC046BC2D002011
:1049D000070080FFB14F000037B50E4C0D00236873
:1049E00001930D4B0340062B06D083070FD10268BD
:1049F0000A4B92699A420AD16946FFF7F9F9009B7E
:104A0000019A2B6023689A4203D01FF0ADFEFFF796
:104A100001F93EBDBC2D0020070080FFB14F000012
:104A2000F0B59DB00993239B0C900A93249B0591AC
:104A30000D93BE4B08921B680FAA102113A81B935D
:104A400005F060FC059B089A93420ED30C9A13ABB9
:104A500013CB13C21B681360B44B1B9A1B680C98D2
:104A60009A4200D192E21FF07FFE059B19785E1CEE
:104A70007D290ED1089BB34208D9059B59787D2921
:104A800004D113A823F058F8059607E0A848FDF7CD
:104A9000B9F97B2906D013A823F04EF8059B013302
:104AA0000593CFE7089BB34216D9059B59787B291C
:104AB000E7D033007D2903D0212901D03A290DD137
:104AC000002634001A78212A11D0002207921AE019
:104AD000089A01339A4201D19648D8E71A787D2A7C
:104AE00003D0212A01D03A2AF2D11C00EAE7089922
:104AF0005A1C91421DD95A780792723A012A18D845
:104B000002339942E8D900211A7805913A2A20D136
:104B10005A1C5B7805927D2B1FD1089B059A934206
:104B2000DAD900230693059B1B787D2B18D0824889
:104B3000ADE78248ABE719787B2905D10132013313
:104B400008998B42F7D3C7E77D29F8D1013A002AAB
:104B5000F5D1059A05930692E5E7059B0122EFE75B
:104B6000002E48D000233078179311F071FB0028F5
:104B70003DD0099B1B680B93002B01DD704886E735
:104B800017AA2100300021F048FC229A179B013A15
:104B900005009A4203D86B496B4821F0A3F80A9AA2
:104BA00001339B009F580122099B52421A60A54283
:104BB00031D26648FDF724FB0135A54204D22B789B
:104BC0002E2B01D05B2BF7D1A91B01223000FFF760
:104BD000D5F80022060001000D9805F049F80028DC
:104BE00007D131005A4825F0E7FA0AF0E1FC350018
:104BF000E3E74768DBE7099B1B68002B01DA5548B0
:104C000045E7229A013A9342C5D201330A999A00A4
:104C10005758099A1360069B002B00D0A7E11C008F
:104C2000079B002B04D0079C733C631E9C41E4B29D
:104C300011AA102117A805F065FB3900220011A860
:104C40000AF042FD17A94448FFF762F801235B42CE
:104C50000E931193069B0700002B00D1ADE003F0EB
:104C600049FD0D9B059A02930A9B06990193229B8D
:104C700017A80093099BFFF7D3FE17A822F04AFF5D
:104C80000026189B0400C3180B9303780693B342C5
:104C900008D0324D190028001FF0E6FDB04200D1C7
:104CA0006EE1013423782B2B6CD000252D2B02D004
:104CB000202B01D1043501342378232B02D1133B5F
:104CC0001D4301342378302B07D1069B002B01D1E3
:104CD0003D330693002E00D130360EAA0B992000EA
:104CE00021F09BFB037807902C2B04D10C3B1D4338
:104CF000030001330793079B1B782E2B06D10798DF
:104D000011AA01300B9921F088FB0790079B1C78B2
:104D1000002C39D0210012481FF0A6FD002803D036
:104D2000079B5B78002B2FD00E48B0E6BC2D0020EF
:104D3000903B0300D13B0300E93B0300B83B030079
:104D40000D3C0300573C0300F00F0300703C0300D0
:104D50002C1003008D3C030038FA0200D73C0300FE
:104D6000DC3C0300EC3C0300310028001FF07CFD1C
:104D7000002804D033000234069E069392E7069082
:104D800006008FE7022596E717A822F097FE069BFC
:104D9000002B08D13800FEF719FF3C2306930028AA
:104DA00001D002330693002E00D1203606231D4287
:104DB0000BD0732C05D1764869E6069D2C002E0099
:104DC000E8E7632C01D1734861E6069B3D2B1FD0B9
:104DD0005E2B1FD03C2B01D13B3B1D433800FEF71F
:104DE000D9FE00282DD0632C50D026D8472C13D8BC
:104DF000452C26D2002C40D0252C22D0380023F080
:104E000089FD220003006449644813F07FFBECE64F
:104E10004023E2E78023E0E7582C53D0622CEDD109
:104E2000002303930E9B02220293612301960095B7
:104E300039000FA811F07CFD30E6672C17D8652CDF
:104E40001BD33800FEF7C2FE00286CD0002C56D0D1
:104E50006E2C54D0472C3FD8452C41D2252C50D015
:104E6000380023F057FD220003004D49CCE76F2C9A
:104E70001AD0782C26D06E2CC0D1002303930E9B21
:104E800001960293009561230A22D1E738000AF0C7
:104E9000FDFC0E9B17A90870012201932B000096C0
:104EA0000FA811F06FFCF9E5EB0602D580239B00FB
:104EB0001D43002303930E9B0196029300956123EB
:104EC0000822B5E70022230003920E9A173B0292B4
:104ED000019600951022ABE72300653B022BBFD85B
:104EE00038000AF037FD119B220002930E9B011C33
:104EF00001932B0000960FA811F044FECEE5672425
:104F0000EEE738000AF026FD802326495B001D43AA
:104F100019F0C6F8119B011C02930E9B0096019399
:104F200066222B00E7E7069B3D2B01D11E48AEE52C
:104F3000002C01D0732C13D117A93800FFF74CFDBA
:104F4000119B0100179A002B00DA1192119B9A42D3
:104F500000D917930E9B00960193179A2B009FE799
:104F6000380023F0D7FC2200030010494CE7079BD0
:104F7000002B00D057E601235B420E9311936EE69F
:104F80006678002E00D0EFE606968BE61DB0F0BDE9
:104F9000053D0300313D0300643D0300741303002D
:104FA000953D03000000C842C93D0300FE3D0300DB
:104FB000F0B5BF4BA1B01B6805000C000D921F930C
:104FC0000A2800D0E4E10DAB0E930123073D0F93B7
:104FD000059215403CD11368B64A934206D10EAAF9
:104FE0000FA9059824F06BFC059502E0B24A9342A4
:104FF000FAD10F9B10A907930E9B20000893FEF790
:10500000F7FE002309900A93A30705D1AB4A236852
:105010009B1A5A425A410A9213AA102117A805F066
:1050200071F9109A00279446099B099C63440493E4
:10503000049BA3420FD8079BA148BB4229D10A9BDE
:10504000A048002B00D09D4817A9FEF761FEBAE1E9
:1050500000230593CDE72178252904D017A822F055
:105060006BFD0134E4E7049B661CB34202D896480A
:10507000FCF7C8FE6178252904D117A822F05CFD51
:105080003400EEE70025282915D1059BAB4202D15B
:105090008E48FDF787F8A01C06003378292B23D112
:1050A000311A0122FEF76AFE0100059808F016FC8D
:1050B000012705000136002334004022002630215C
:1050C00004200B9320330693049BA34213D80023A0
:1050D0001193049BA34231D923782A2B70D1079BCB
:1050E000BB4221D87A48D4E7049BB34201D879481F
:1050F000BEE70136D1E723782D2B03D12C3B1E438D
:105100000134E1E72B2B01D1293BF8E7202B01D11A
:105110000643F5E7232B04D0302BD8D11643069154
:10512000EEE710230B93EBE77B1C0C93089BBF006F
:10513000F8580AF0ABFB0C9F1190013401235B423D
:105140001293049BA34292D923782E2B17D1049B50
:10515000601C83428BD963782A2B38D1079BBB42D2
:10516000C0D97B1C0C93089BBF00F8580AF08EFB3B
:105170000C9F12900234049BA34200D877E7002DC5
:1051800006D1079BBB42ADD9089ABB009D58013799
:105190002278672A45D8652A00D3B8E0582A5DD01E
:1051A0001DD81300453B022B00D8B0E0099B4A49AB
:1051B000E41A00941300494813F0A8F90AF0F8F92A
:1051C000200011AA049921F028F90400B6E7002371
:1051D00012AA0499129321F020F90400CBE7632A64
:1051E00049D0642AE2D103222B001340022B0AD1BA
:1051F0003B4B2B40062B06D0FF23DB05E8189043E2
:10520000FBF740FD0500129B0A220393119B0096B9
:105210000293069B01936123290013A811F088FBD8
:105220001FE7732A16D8722A00D380E0692ADAD0E1
:105230006F2ABBD10B9B002B02D084239B001E4303
:10524000129B00960393119B08220293069B0193E5
:105250006123E1E7752AC6D0782AA7D11300129AF4
:10526000173B0392119A0292069A01920B9A1643E7
:1052700000961022D0E71A4B2B40062B05D0AB0727
:1052800032D1104B2A689A422ED11BA92800FFF771
:10529000A3FB1B9A0100012A01D01248F9E6119BD9
:1052A000019320230093330013A811F06BFAD8E682
:1052B000BC2D002014010300ACEC020064C102000C
:1052C0005B3B030038FA0200963A0300A83A030059
:1052D000D53A0300BF3A0300263B030074130300D2
:1052E000070080FFFC3A03002800FEF753FC00286B
:1052F0000BD028000AF0CAFA119B1BA90870019371
:105300002023012200933300CEE76F48C1E6280036
:105310000AF020FB129B22780293119B011C01933F
:10532000069B13A80093330011F02CFC99E615AAF4
:1053300010211BA804F0E6FF23781A00723A5142AC
:105340004A41D2B2722B09D00A9B002B06D0AB0780
:1053500004D15E4B2968994200D10422290015A886
:105360000AF0B2F9129A1C9B002A00DA1293129AE0
:105370009A4200D91A00119B1D990193202313A86A
:105380000093330011F0FEF91BA822F097FB68E6AA
:1053900008000AF081F915A907002000FEF728FD92
:1053A0000590072D27D117A90D980AF0ADFA030033
:1053B0000020834207D0179981420BDC444B4548BB
:1053C0009F4200D10E20444B1F9A1B689A4278D00E
:1053D0001FF0CAF9159B1BA8594322F05EFB1D9BC9
:1053E0000121049300930598179B159A22F077FAF0
:1053F0001BA9380029E60D980AF04EF9B8420FD1E2
:105400001BA90D98FEF7F4FC1B9E04901D2D17D8C8
:10541000192D4ED2052D21D0122D1FD00020D2E7FC
:105420002A4B0D989F4209D101221BA923F089FA2A
:105430000028C8D01B9B1C9E0493E7E7FEF7EAFBFD
:105440001F2DEBD10123049A009315993300059881
:1054500020F0FBFF00282AD02048B4E7159B002B42
:1054600007D10D980AF018F9B84202D10D9C20001E
:10547000A9E7002EFBD0159B1BA8F11822F00DFB0D
:105480001D9B159A0599180006931EF011FF159A99
:105490001D9B9446059363441800320004991EF046
:1054A00007FF1BA93800FEF733FC0400DFE70C48B8
:1054B00089E70096049B159A0599280022F045FA81
:1054C000C8E721B0F0BDC046153B030064C102002F
:1054D00038FA020054C10200BC2D002030C6020080
:1054E00028C60200F0B5514B89B01B68050008685A
:1054F0000C0007930AF0D0F80090012D28D96668B7
:10550000022D26D0A0680AF0C1F90500002108008C
:1055100023F022FB05A901902068FEF769FC059B9A
:105520000400C718424B9E4246D1BC422AD2207882
:1055300010F076FE00280FD1002D0FD121003A1B6C
:10554000009820F0A1FF010001980AF0F5FB19E096
:10555000374E01256D42D9E70134E6E72600307861
:1055600010F05EFE002802D10136B742F7D82100C4
:10557000321B009820F088FF010001980AF0DCFB44
:10558000B7420ED8294B079A1B6801989A424AD015
:105590001FF0EAF80136B74203D1002DF2DD013DDC
:1055A00006E0307810F03CFE0028F3D1002DF6DC48
:1055B000BE42E7D23400BFE730000AF06DF8009B2E
:1055C000984202D03000FEF725FB06A93000FFF715
:1055D00003FA069B0390002B13D11648FCF712FC2C
:1055E0003E002100321B009820F04EFF0100019880
:1055F0000AF0A2FBBE42C5D2069BF418002D00DDC6
:10560000013D2600069B0293002DE9D0029BF31872
:105610009F42E5D3029A039930001EF023FE002832
:10562000DFD00136F0E709B0F0BDC046BC2D002048
:1056300048E60200303E0300F0B5454B8DB01B68D4
:1056400007000D000B9302280CD829003800FFF743
:1056500049FF05003E4B0B9A1B6828009A4274D004
:105660001FF082F808680AF017F809A90490286862
:105670006E68FEF7BDFB0190A8680AF007F9041EEA
:10568000E3DB431C18000021059323F065FA314B3E
:1056900005009E4202D13048FCF7B2FD0AA9300055
:1056A000FFF79AF90A9B0690002B02D12B48FCF7D2
:1056B000A9FB099A019B944663440293A3000393B8
:1056C0000A9F029BDE1B002C0BD0019BB34208D823
:1056D0003A00069930001EF0C5FD002821D0013E99
:1056E000F1E7EB68A6009F19019A029B01999A1AAB
:1056F000049820F0C9FE3860002CABD0059B1C1B21
:10570000EB68A70099193A0018001EF015FE6B68A7
:1057100000211A1BEB689200D8191EF05BFEAC60EA
:1057200098E7039AEB68944663440793029BF11948
:105730009A1BD21B049820F0A7FE079B013C18601F
:10574000039B0296043B0393BAE70DB0F0BDC0463D
:10575000BC2D002048E60200C73E0300303E030097
:10576000F0B50D00104C8DB02368060005A928681F
:1057700017000B93FEF73CFB00230693059B0100EB
:10578000C218029706AB07A801950096FFF748F9E3
:1057900007A90648FEF7BCFA0B9A23689A4201D083
:1057A0001EF0E2FF0DB0F0BDBC2D002038FA020063
:1057B00010B5034B186824F004FF21F023FF10BD3F
:1057C000D029002010B5034B186824F001FF21F008
:1057D00019FF10BDD029002010B5034B186824F024
:1057E000FEFE21F00FFF10BDD029002030B5114D75
:1057F00085B02B680021032003930FF0F9FF0E4BB7
:1058000004001968684624F0CFFE009821F0FAFEE3
:10581000A060019821F0F6FEE060029821F0F2FE0F
:10582000039A2B68206120009A4201D01EF09CFF51
:1058300005B030BDBC2D0020D029002010B5FEF7EA
:10584000BFFA0023064A99008958814205D00133E6
:105850000C2BF8D10348FCF7D5FA180010BDC04650
:1058600048C30200DD3E0300094A70B51378002BDF
:105870000DD1084D2C78E4B2002C08D101331370FF
:105880002B70054B186803685B6898472C7070BDD7
:105890000E2E00200F2E0020D029002010B5FFF77B
:1058A000E3FF054B186824F0BBFE044B8000C3588F
:1058B0000620DB00184310BDD029002048C3020099
:1058C00010B50800FFF7BAFF0400FFF7CDFF054B46
:1058D000186824F0A5FE044BA04200D0034B18002A
:1058E00010BDC046D029002030C6020028C60200E4
:1058F00010B50800FFF7A2FF0400FFF7B5FF012372
:10590000A340064A064811880B4200D10548118879
:10591000994311800022044B1A7010BDC42D002041
:1059200030C6020028C60200182E0020F8B5FFF786
:105930009BFF134C13482378002B1FD020780021A5
:10594000C0B20FF055FF012600220F4F237893427B
:1059500012D915005308FB5C3540AD002B410F25D3
:105960002B400A4D9B005B5906259100DB00411836
:105970002B438B600132E9E700232370F8BDC0465A
:10598000182E00200C010300102E002048C3020036
:1059900070B543885A1E0A2A1FD801252A009A404A
:1059A0000F490888024392B20E480A8002780F2AF3
:1059B00013D802780C4CEA40A25C0678D2B20F21D0
:1059C0002E420BD00A401B0113430278DBB252086F
:1059D000A35403780133DBB2037070BD8A43F3E74D
:1059E000C42D0020182E0020102E002010B50D4CC4
:1059F000206824F065FE002807D00B4B1B78002B95
:105A000003D1206803685B6898470023074A137036
:105A1000074A137003F028FFFCF7B8FD10F0BEFA38
:105A200010BDC046D4290020472E0020462E00205D
:105A30000E2E0020F0B5444D97B02B68061E15932E
:105A400008D142481EF0B2FD159A2B689A4279D0CF
:105A50001EF08AFE09A809F085FD041E19D13768D9
:105A6000310005A8012211F0D5FC230022003900E5
:105A700005A80EF01BFE040003200FF03BFE2000E3
:105A800020F0F1F8012040420FF034FE09F088FDCB
:105A9000DAE7012040420FF02DFE0A992C4809F068
:105AA00037FE0A9809F0F8FD2A49040009F0F4FBD2
:105AB0000028C9D12849200009F0EEFB0028C3D1F5
:105AC0000A9C02AA01A9200012F0CEFD03AA3221ED
:105AD00005A804F017FC019B022B05D9029B1F4966
